101 202881066 1300097831412211437A094101Bank of Any Town       Your Company
5220Your Company          1657777777PPDAutoPay   141222141222   1202881060000001
622248238184130009783    0000725152     Around the Horn         0202881060000101
632730888330823795428    0000663761     Berglunds snabbkop      0202881060000102
622780873395657340609    0000095319     Familia Arquibaldo      0202881060000103
622860847885362060253    0000703654     Santé Gourmet           0202881060000104
622722887268973059050    0000555986     Seven Seas Imports      0202881060000105
622549040602999913231    0000231437     Bottom-Dollar Markets   0202881060000106
622774807678757415759    0000695228     Ernst Handel            0202881060000107
622362079287449293701    0000791862     Drachenblut Delikatass  0202881060000108
822000009151366592180000000000000000446494661657777777           202881060000001
9000001000010000000915136659218000000000000000044649466